{
  "contractName": "Faucet",
  "abi": [
    {
      "inputs": [],
      "name": "numOfFunders",
      "outputs": [
        {
          "internalType": "uint256",
          "name": "",
          "type": "uint256"
        }
      ],
      "stateMutability": "view",
      "type": "function",
      "constant": true
    },
    {
      "inputs": [],
      "name": "owner",
      "outputs": [
        {
          "internalType": "address",
          "name": "",
          "type": "address"
        }
      ],
      "stateMutability": "view",
      "type": "function",
      "constant": true
    },
    {
      "inputs": [],
      "name": "test3",
      "outputs": [
        {
          "internalType": "uint256",
          "name": "",
          "type": "uint256"
        }
      ],
      "stateMutability": "pure",
      "type": "function",
      "constant": true
    },
    {
      "inputs": [],
      "name": "testNum",
      "outputs": [
        {
          "internalType": "uint256",
          "name": "",
          "type": "uint256"
        }
      ],
      "stateMutability": "view",
      "type": "function",
      "constant": true
    },
    {
      "stateMutability": "payable",
      "type": "receive",
      "payable": true
    },
    {
      "inputs": [],
      "name": "test1",
      "outputs": [],
      "stateMutability": "nonpayable",
      "type": "function"
    },
    {
      "inputs": [],
      "name": "emitLog",
      "outputs": [
        {
          "internalType": "bytes32",
          "name": "",
          "type": "bytes32"
        }
      ],
      "stateMutability": "pure",
      "type": "function",
      "constant": true
    },
    {
      "inputs": [],
      "name": "addFunds",
      "outputs": [],
      "stateMutability": "payable",
      "type": "function",
      "payable": true
    },
    {
      "inputs": [
        {
          "internalType": "uint256",
          "name": "withdrawAmount",
          "type": "uint256"
        }
      ],
      "name": "withdraw",
      "outputs": [],
      "stateMutability": "nonpayable",
      "type": "function"
    },
    {
      "inputs": [],
      "name": "getAllFunders",
      "outputs": [
        {
          "internalType": "address[]",
          "name": "",
          "type": "address[]"
        }
      ],
      "stateMutability": "view",
      "type": "function",
      "constant": true
    },
    {
      "inputs": [
        {
          "internalType": "uint8",
          "name": "index",
          "type": "uint8"
        }
      ],
      "name": "getFunderAtIndex",
      "outputs": [
        {
          "internalType": "address",
          "name": "",
          "type": "address"
        }
      ],
      "stateMutability": "view",
      "type": "function",
      "constant": true
    }
  ],
  "bytecode": "0x608060405234801561001057600080fd5b50336000806101000a81548173ffffffffffffffffffffffffffffffffffffffff021916908373ffffffffffffffffffffffffffffffffffffffff1602179055506103e8600181905550610ab5806100696000396000f3fe6080604052600436106100955760003560e01c80638da5cb5b116100595780638da5cb5b14610174578063a26759cb1461019f578063ae28f1ed146101a9578063af7f2c9b146101d4578063f42c13bf146101ff5761009c565b80630a8e8e01146100a15780630a93cf33146100cc5780632e1a7d4d146101095780636b59084d146101325780636fbbb55d146101495761009c565b3661009c57005b600080fd5b3480156100ad57600080fd5b506100b661022a565b6040516100c39190610625565b60405180910390f35b3480156100d857600080fd5b506100f360048036038101906100ee919061067e565b610233565b60405161010091906106ec565b60405180910390f35b34801561011557600080fd5b50610130600480360381019061012b9190610733565b610273565b005b34801561013e57600080fd5b5061014761030a565b005b34801561015557600080fd5b5061015e61039a565b60405161016b919061081e565b60405180910390f35b34801561018057600080fd5b50610189610494565b60405161019691906106ec565b60405180910390f35b6101a76104b8565b005b3480156101b557600080fd5b506101be6105d8565b6040516101cb9190610625565b60405180910390f35b3480156101e057600080fd5b506101e96105de565b6040516101f69190610625565b60405180910390f35b34801561020b57600080fd5b506102146105e4565b6040516102219190610859565b60405180910390f35b60006064905090565b6000600460008360ff16815260200190815260200160002060009054906101000a900473ffffffffffffffffffffffffffffffffffffffff169050919050565b8067016345785d8a00008111156102bf576040517f08c379a00000000000000000000000000000000000000000000000000000000081526004016102b6906108f7565b60405180910390fd5b3373ffffffffffffffffffffffffffffffffffffffff166108fc839081150290604051600060405180830381858888f19350505050158015610305573d6000803e3d6000fd5b505050565b60008054906101000a900473ffffffffffffffffffffffffffffffffffffffff1673ffffffffffffffffffffffffffffffffffffffff163373ffffffffffffffffffffffffffffffffffffffff1614610398576040517f08c379a000000000000000000000000000000000000000000000000000000000815260040161038f90610989565b60405180910390fd5b565b6060600060025467ffffffffffffffff8111156103ba576103b96109a9565b5b6040519080825280602002602001820160405280156103e85781602001602082028036833780820191505090505b50905060005b60025481101561048c576004600082815260200190815260200160002060009054906101000a900473ffffffffffffffffffffffffffffffffffffffff1682828151811061043f5761043e6109d8565b5b602002602001019073ffffffffffffffffffffffffffffffffffffffff16908173ffffffffffffffffffffffffffffffffffffffff1681525050808061048490610a36565b9150506103ee565b508091505090565b60008054906101000a900473ffffffffffffffffffffffffffffffffffffffff1681565b6000339050600360008273ffffffffffffffffffffffffffffffffffffffff1673ffffffffffffffffffffffffffffffffffffffff16815260200190815260200160002060009054906101000a900460ff166105d55760006002600081548092919061052390610a36565b9190505590506001600360008473ffffffffffffffffffffffffffffffffffffffff1673ffffffffffffffffffffffffffffffffffffffff16815260200190815260200160002060006101000a81548160ff021916908315150217905550816004600083815260200190815260200160002060006101000a81548173ffffffffffffffffffffffffffffffffffffffff021916908373ffffffffffffffffffffffffffffffffffffffff160217905550505b50565b60015481565b60025481565b60007f48656c6c6f20576f726c64000000000000000000000000000000000000000000905090565b6000819050919050565b61061f8161060c565b82525050565b600060208201905061063a6000830184610616565b92915050565b600080fd5b600060ff82169050919050565b61065b81610645565b811461066657600080fd5b50565b60008135905061067881610652565b92915050565b60006020828403121561069457610693610640565b5b60006106a284828501610669565b91505092915050565b600073ffffffffffffffffffffffffffffffffffffffff82169050919050565b60006106d6826106ab565b9050919050565b6106e6816106cb565b82525050565b600060208201905061070160008301846106dd565b92915050565b6107108161060c565b811461071b57600080fd5b50565b60008135905061072d81610707565b92915050565b60006020828403121561074957610748610640565b5b60006107578482850161071e565b91505092915050565b600081519050919050565b600082825260208201905092915050565b6000819050602082019050919050565b610795816106cb565b82525050565b60006107a7838361078c565b60208301905092915050565b6000602082019050919050565b60006107cb82610760565b6107d5818561076b565b93506107e08361077c565b8060005b838110156108115781516107f8888261079b565b9750610803836107b3565b9250506001810190506107e4565b5085935050505092915050565b6000602082019050818103600083015261083881846107c0565b905092915050565b6000819050919050565b61085381610840565b82525050565b600060208201905061086e600083018461084a565b92915050565b600082825260208201905092915050565b7f43616e6e6f74207769746864726177206d6f7265207468616e20302e3120657460008201527f6865720000000000000000000000000000000000000000000000000000000000602082015250565b60006108e1602383610874565b91506108ec82610885565b604082019050919050565b60006020820190508181036000830152610910816108d4565b9050919050565b7f4f6e6c79206f776e65722063616e2063616c6c20746869732066756e6374696f60008201527f6e00000000000000000000000000000000000000000000000000000000000000602082015250565b6000610973602183610874565b915061097e82610917565b604082019050919050565b600060208201905081810360008301526109a281610966565b9050919050565b7f4e487b7100000000000000000000000000000000000000000000000000000000600052604160045260246000fd5b7f4e487b7100000000000000000000000000000000000000000000000000000000600052603260045260246000fd5b7f4e487b7100000000000000000000000000000000000000000000000000000000600052601160045260246000fd5b6000610a418261060c565b91507fffffffffffffffffffffffffffffffffffffffffffffffffffffffffffffffff821415610a7457610a73610a07565b5b60018201905091905056fea26469706673582212201b171190e1432a420b12a083559f6d1ade00615d5ce377810302cb318224f17c64736f6c634300080c0033",
  "immutableReferences": {},
  "source": "// SPDX-License-Identifier: MIT\r\npragma solidity >=0.4.22 <0.9.0;\r\n\r\nimport \"./Owned.sol\";\r\nimport \"./Logger.sol\";\r\nimport \"./IFaucet.sol\";\r\n\r\ncontract Faucet is Owned, Logger, IFaucet {\r\n    uint256 public numOfFunders;\r\n\r\n    mapping(address => bool) private funders;\r\n    mapping(uint256 => address) private lutFunders;\r\n\r\n    modifier limitWithdraw(uint256 withdrawAmount) {\r\n        require(\r\n            withdrawAmount <= 100000000000000000,\r\n            \"Cannot withdraw more than 0.1 ether\"\r\n        ); // this is a condition to be met in order to move ahead\r\n        _;\r\n    }\r\n\r\n    function test1() external onlyOwner {\r\n        // admin access only\r\n    }\r\n\r\n    // private => can be accessible only within the smart contract\r\n    // internal => can be accessible within smart contract and also derived smart contract\r\n\r\n    function emitLog() public override pure returns(bytes32) {\r\n        return \"Hello World\";\r\n    }\r\n\r\n    receive() external payable {} // called when you make a transaction that doesn't specify funciton name to call\r\n\r\n    function addFunds() external override payable {\r\n        // payable allows the function to perform transactions when called\r\n        address funder = msg.sender;\r\n\r\n        if (!funders[funder]) {\r\n            uint256 index = numOfFunders++;\r\n            funders[funder] = true;\r\n            lutFunders[index] = funder;\r\n        }\r\n    }\r\n\r\n    function withdraw(uint withdrawAmount) override external limitWithdraw(withdrawAmount) {\r\n        payable(msg.sender).transfer(withdrawAmount);\r\n    }\r\n\r\n    function getAllFunders() external view returns (address[] memory) {\r\n        address[] memory _funders = new address[](numOfFunders);\r\n\r\n        for (uint256 i = 0; i < numOfFunders; i++) {\r\n            _funders[i] = lutFunders[i];\r\n        }\r\n\r\n        return _funders;\r\n    }\r\n\r\n    function getFunderAtIndex(uint8 index) external view returns (address) {\r\n        return lutFunders[index];\r\n    }\r\n\r\n    // view, pure - read-only call, no gas fee\r\n    // view - it indicates that the function will not alter the storage state in any way\r\n    // pure - even more strict, indicating that it won't even read the storage state\r\n\r\n    // Transaction (can generate state changes) and require gas fee\r\n    // read-only call, no gas fee\r\n}\r\n\r\n// const instance = await Faucet.deployed()\r\n// instance.addFunds({from: accounts[0], value: \"2000000000000000000\"})\r\n// instance.withdraw(\"500000000000000000\", {from: accounts[1]})\r\n",
  "sourcePath": "C:\\Users\\lewar\\Desktop\\mxle\\Programming\\blockchain\\faucet\\contracts\\Faucet.sol",
  "compiler": {
    "name": "solc",
    "version": "0.8.12+commit.f00d7308.Emscripten.clang"
  },
  "schemaVersion": "3.4.6",
  "updatedAt": "2022-04-12T06:01:58.850Z",
  "networkType": "ethereum",
  "devdoc": {
    "kind": "dev",
    "methods": {},
    "version": 1
  },
  "userdoc": {
    "kind": "user",
    "methods": {},
    "version": 1
  }
}